:020000000629CF
:10000800FF00030E8301AD000A08AE008A010C1C34
:1000180013280C100B308F00DC308E00A30A2E083A
:0C0028008A002D0E8300FF0E7F0E0900E1
:100034000E3083120313FD00FD0B1E280000080080
:10004400831603178C1C282800002228831203130C
:100054002F0803178D0030088C0083168C130C15A1
:100064000B0883120313F0008B1355308316031708
:100074008D00AA308D008C1483120313F01B4428C6
:0E0084008B1345288B17831603170C110800E9
:10009200831203139F01C0309F042009F0007008EF
:1000A20083169F051F179F1783122F08F000F00D6C
:1000B2007010F00D7010F00D701070089F041F1476
:1000C2001A201F151F1D6728000063281F101E0815
:1000D200F100F00183161E088312F0040030F104CF
:0200E200080014
:1000E400831203132F0803178D0083168C130C142B
:0800F40083120C08F000080063
:0E00FC008312031326088A00250882000800DC
:10010A00013083120313AF0072207008AA00023074
:10011A00AF0072207008AB001A30AF00722070086E
:04012A00AC0008001D
:10012E00FF3083120313A700FF30A800FF30A90091
:10013E00FF309F01C0309F042009F0007008831625
:0C014E009F051F179F1783121F14080045
:10015A0031308312031390000C100B308F00DC3007
:0C016A008E0083160C148B170B17080076
:1001760000308312031305180130AF0049202A0A04
:10018600F2007208AA002A08AF007008B000222008
:10019600013083120313AF002A08B00022200800A2
:1001A60011308316031385008601831285018601AB
:0601B600972085200800DF
:1001BC00AD2003131830831222020318F9280430DF
:1001CC002302031CEB28A301A40A3C302402031CC9
:1001DC00F128A401A10A3C302102031CF828A1013A
:0801EC00A20ABB20DF28080075
:1001F4007E208A110A128000840AA50A0319A60A1D
:08020400F003031DFA280800B5
:10020C001821D3202B08031D0C29DE200C290D29C5
:1002300020308400053083120313F0001330A50032
:080240000130A600FA200800BD
:020226000F3493
:020228000034A0
:02022A0000349E
:02022C0000349C
:02022E0000349A
:02400E004A2F37
:00000001FF
