:020000009D2839
:10000800FF00030E8301AD000A08AE008A010C1C34
:100018000F289520A10A2E088A002D0E8300FF0EB6
:040028007F0E09003E
:10002C0031308312031390000C100B308F00DC3036
:0C003C008E0083160C148B170B170800A5
:10004800162018308312240203183D280430210298
:10005800031C3028A101A20A3C302202031C3628C6
:10006800A201A30A3C302302031C3C28A301A40AD2
:04007800252808002F
:10007C00831203132F0803178D0083168C130C1493
:08008C0083120C08F0000800CB
:0E0094008312031329088A002808820008003E
:1000A200FF3083120313A500FF30A600FF30A70024
:1000B200FF309F01C0309F042009F00070088316B2
:0C00C2009F051F179F1783121F140800D2
:1000CE00013083120313AF003E207008AA000230E5
:1000DE00AF003E207008AB001A30AF003E20700813
:0E00EE00AC002B0803197C287D282420080074
:1000FC001130831603138500860183128501860156
:06010C00512067200800ED
:100112004A208A110A128000840AA80A0319A90A2D
:08012200F003031D8928080009
:10012A00831203130C100B308F00DC308E00080092
:08013A00AC207E209F28A028C4
:1001580020308400053083120313F000A630A80075
:080168000030A9008920080005
:02014C000F346E
:02014E0000347B
:02015000003479
:02015200003477
:02015400003475
:02400E004A2F37
:00000001FF
