:020000006D2869
:100006000E3083120313FD00FD0B072800000800C5
:0E0016008312031325088A00240882000800C4
:10002400FF3083120313A100FF30A200FF30A300AE
:10003400FF309F01C0309F042009F0007008831630
:0C0044009F051F179F1783121F14080050
:10005000831203139F01C0309F042009F000700831
:1000600083169F051F179F1783122708F000F00DB6
:100070007010F00D7010F00D701070089F041F14B8
:1000800003201F151F1D4628000042281F101E08B0
:10009000F100F00183161E088312F0040030F10411
:0200A000080056
:0C00A200831203132608A7002820080082
:1000AE000B208A110A128000840AA40A0319A50AD9
:0800BE00F003031D57280800A0
:1000C600113083160313850086018312850186018C
:0400D60012200800EC
:1000DA007E206320003005180130A60051207008E8
:0600EA0086006F28772854
:1000FC0020308400013083120313F0007D30A40003
:08010C000030A5005720080097
:0200FA000F34C1
:02400E004A2F37
:00000001FF
