:020000002029B5
:10000800FF00030E8301AC000A08AD008A010C1C36
:1000180013280C100B308F00DC308E00A20A2D083C
:0C0028008A002C0E8300FF0E7F0E0900E2
:100034000E3083120313FD00FD0B1E280000080080
:10004400831603178C1C282800002228831203130C
:100054002E0803178D002F088C0083168C130C15A3
:100064000B0883120313F0008B1355308316031708
:100074008D00AA308D008C1483120313F01B4428C6
:0E0084008B1345288B17831603170C110800E9
:10009200831203139F01C0309F042109F0007008EE
:1000A20083169F051F179F1783122E08F000F00D6D
:1000B2007010F00D7010F00D701070089F041F1476
:1000C2001A201F151F1D6728000063281F101E0815
:1000D200F100F00183161E088312F0040030F104CF
:0200E200080014
:1000E400831203132E0803178D0083168C130C142C
:0800F40083120C08F000080063
:0E00FC008312031326088A00250882000800DC
:10010A00013083120313AE0072207008AB001A305C
:0A011A00AE0072207008A700080074
:1001240031308312031390000C100B308F00DC303D
:0C0134008E0083160C148B170B170800AC
:10014000FF3083120313A800FF30A900FF30AA007C
:10015000FF309F01C0309F042109F0007008831612
:0C0160009F051F179F1783121F14080033
:10016C00831203132B0AF0007008AB000030051843
:10017C000130AE0049207008AF002B08AE002220E1
:10018C00013083120313AE002B08AF0022200800AD
:10019C000B3083120313FB002630FC005D30FD0096
:1001AC00FD0BD628FC0BD628FB0BD6280000000034
:0201BC00080039
:1001BE00831203138814081192200313183083122C
:1001CE0020020318FE2804302202031CF028A2018C
:1001DE00A30A3C302302031CF628A301A40A3C30D8
:1001EE002402031CFD28A401A00AB620E428023034
:0C01FE0083120313AE00AF0122200800A2
:10020A007E208A110A128000840AA50A0319A60A06
:08021A00F003031D0529080093
:10022200FF308316031385008601F930880083129C
:0E0232008501860108158810A020852008008F
:1002400036211121CE200230AE0072207008031931
:080250002A29DF202A292B29AD
:10026C0020308400053083120313F0003130A500D8
:08027C000130A6000521080075
:02026200003466
:020264000F3455
:02026600003462
:02026800003460
:02026A0000345E
:02400E004A2F37
:00000001FF
