:0200000057287F
:0C000600831225088A00240882000800EC
:10001200FF308312A100FF30A200FF30A300FF30A7
:100022009F012009F000700883169F05C0308312DB
:060032009F041F140800EA
:0C00380007308312FD00FD0B1F2808009C
:1000440003208A110A128000840AA40A0319A50A4B
:08005400F003031D222808003F
:10005C0011308316850086018312850186010920E3
:02006C0008008A
:10006E0083129F012009F000700883169F05C0308F
:10007E0083129F042608F000F00D7010F00D701022
:10008E00F00D701070089F041F141C201F151F1DEB
:10009E00522800004E281F101E08F000F101080023
:1000AE0068202E20003005180130A6003720700879
:0600BE00860059286128AC
:1000D0002030840001308312F0006730A40000302B
:0600E000A500222008002B
:0200CE000734F5
:02400E00CA20C6
:00000001FF
