:02000000C62B0D
:100006007408F8027508031C750FF9027608031CBC
:10001600760FFA027708031C770FFB02F30D073001
:10002600FC00730DF80DF90DFA0DFB0D7408731C29
:100036002A28F8027508031C750FF9027608031CB6
:10004600760FFA027708031C770FFB023728F807AA
:1000560075080318750FF90776080318760FFA075F
:1000660077080318770FFB07F30DFC0B1428720DA6
:10007600F80DF90DFA0DFB0D7408731C5028F802E3
:100086007508031C750FF9027608031C760FFA0231
:100096007708031C770FFB025D28F807750803181D
:1000A600750FF90776080318760FFA07770803180D
:1000B600770FFB07F20D0730FC00720DF80DF90DF6
:1000C600FA0DFB0D7408721C7628F8027508031CDD
:1000D600750FF9027608031C760FFA027708031CDF
:1000E600770FFB028328F80775080318750FF907C1
:1000F60076080318760FFA0777080318770FFB07B9
:10010600F20DFC0B6028710DF80DF90DFA0DFB0DC3
:100116007408721C9C28F8027508031C750FF902F6
:100126007608031C760FFA027708031C770FFB028A
:10013600A928F80775080318750FF9077608031834
:10014600760FFA0777080318770FFB07F10D0730CC
:10015600FC00710DF80DF90DFA0DFB0D7408711CFC
:10016600C228F8027508031C750FF9027608031CED
:10017600760FFA027708031C770FFB02CF28F807E1
:1001860075080318750FF90776080318760FFA072E
:1001960077080318770FFB07F10DFC0BAC28700DE1
:1001A600F80DF90DFA0DFB0D7408711CE828F8021C
:1001B6007508031C750FF9027608031C760FFA0200
:1001C6007708031C770FFB02F528F8077508031854
:1001D600750FF90776080318760FFA0777080318DC
:1001E600770FFB07F00D0730FC00700DF80DF90DC9
:1001F600FA0DFB0D7408701C0E29F8027508031C15
:10020600750FF9027608031C760FFA027708031CAD
:10021600770FFB021B29F80775080318750FF907F6
:1002260076080318760FFA0777080318770FFB0787
:10023600F00DFC0BF82870182E297408F8077508BD
:100246000318750FF90776080318760FFA0777086B
:080256000318770FFB070800F5
:10025E00FB09FA09F909F809F80A0319F90A031949
:08026E00FA0A0319FB0A08005B
:10027600A0308312F0000F30F100F201F301080004
:0C02860007308312FD00FD0B4629080024
:1002920083127408003A031D63297508003A031D8E
:1002A20063297608003A031D63297708003A031D83
:1002B2006329FF30F000FF30F100FF30F2007F30A1
:1002C200F300FC2983120313FC01F71BFC0AFD0156
:1002D200FB01FA01F901F801730872047104700458
:1002E2000319F72973087706A000A01BFD09F71F61
:1002F2008529F409F509F609F709F40A0319F50A3B
:100302000319F60A0319F70AF31F9229F009F109F2
:10031200F209F309F00A0319F10A0319F20A03199F
:10032200F30A73087704A000A01BB3290320FC1B67
:10033200D029FD1FF729F009F109F209F309F00AA2
:100342000319F10A0319F20A0319F30AF809F90960
:10035200FA09FB09F80A0319F90A0319FA0A031937
:10036200FB0AF729F71FCA29F31BC4297308FB00EC
:100372007208FA007108F9007008F800F301F2013E
:10038200F101F0019A29F301F201F101F001F00A01
:100392000034F309F209F109F009FC179729F80A68
:1003A2000319F90A0319FA0A0319FB0A74087802F5
:1003B200031D9A2975087902031D9A2976087A0283
:1003C200031D9A2977087B02031D9A29FB01FA0172
:1003D200F901F801F00A0319F10A0319F20A0319E3
:1003E200F30AF31F9A29A0012016FF34A0017C1CF6
:0803F200FB292F21003E080049
:1003FA00831203132230FC00F801F901FA01FB0110
:10040A00FC030319332A0310FB0CFA0CF90CF80C41
:10041A00F30CF20CF10CF00C031C052AFC03031973
:10042A00252A7408F80775080318750FF90776085E
:10043A000318760FFA0777080318770FFB07092ABC
:10044A007408F80775080318750FF9077608031872
:0E045A00760FFA0777080318770FFB070800E4
:1004680083123108A7003208F0000130F20070084A
:100478000319422AF20D7210FF3E3C2A7208AC00A2
:100488007209AD003308F1000130F000710803195A
:10049800512AF00D7010FF3E4B2A7008AE00F0098B
:1004A8007008AB008030310784007208800470083F
:1004B8008005A80138080319622AA80984132808A6
:1004C800003A03196A2A2B0880056C2A2E08800432
:1004D8003B21E830F4000330F500F601F701FD2177
:1004E8007008C3007108C4007208C5007308C6000C
:1004F8004308B9004408BA004508BB004608BC00D8
:100508003408F0003508F1003608F2003708F30027
:10051800F00DF10DF20DF30D7010F00DF10DF20D5F
:10052800F30D70100A30F400F501F601F701FD2112
:100538007008BD007108BE007208BF007308C000D3
:100548007008F4007108F5007208F6007308F700E7
:100558004308F0004408F1004508F2004608F3009B
:1005680049217008C1007108C2007108F400F50142
:10057800740875040319C32A0230F000182B4108C7
:10058800A9003D08F4003E08F5003F08F6004008C1
:10059800F7003908F0003A08F1003B08F2003C087F
:1005A800F30049217808F0007908F1007A08F20090
:1005B8007B08F3007008B9007108BA007208BB0024
:1005C8007308BC003D08F5003E08F6003F08F70038
:1005D8004008F800F80CF70CF60CF50CF813781B2B
:1005E800F81780307806F400803073067402031D13
:1005F800072B72087702031D072B71087602031D6B
:10060800072B7008750203180A2BA90A2908F1009C
:10061800F10CF1137108AA00073071020318172BA7
:0A0628000130F000182BF00108006B
:0C063200831223088A00220882000800BE
:10063E008312B103B1033108003C03182B2BB10315
:10064E00000000000000222B00000000000000004F
:04065E000000080090
:10066200FF308312A400FF30A500FF30A600FF3048
:100672009F012109F000700883169F05C030831284
:060682009F041F14080094
:1006880083129F012109F000700883169F05C0306E
:1006980083129F043108F000F00D7010F00D7010F7
:1006A800F00D701070089F041F1443211F151F1DA3
:1006B8005F2B00005B2B1F101E08F000F1010800E3
:1006C80019238A110A128000840AA20A0319A30AAC
:0806D800F003031D642B080070
:1006E00001308312B0002808AF06270884002808CC
:1006F000003A03197E2B2E088004802B2B088005DE
:100700002908B1001F23AF09300803199C2B3008BA
:100710002F05F000031D8F2B2E088004912B2B0832
:100720008005B00D301002302902B1001F230000F7
:10073000000000000000842B2808003A0319A32BB6
:100740002B088005A52B2E0880042908B1001F2343
:0207500008009F
:1007520011308316850010308600831285018601D0
:1007620031230630B1000730B2000630B3008030CA
:10077200B4002530B500B601B701B8013422080033
:0A07820083122F08B1004423080081
:10078C00D823A923003086180130AF00C12370088C
:08079C00AF007023C82BD12B24
:1007B0002130840001308312F000D730A2000330D2
:0607C000A3006423080001
:0207AE0007340E
:02400E00CA20C6
:00000001FF
